{
  "_format": "hh-sol-artifact-1",
  "contractName": "BasicNFT",
  "sourceName": "contracts/BasicNFT.sol",
  "abi": [
    {
      "inputs": [],
      "stateMutability": "nonpayable",
      "type": "constructor"
    },
    {
      "anonymous": false,
      "inputs": [
        {
          "indexed": true,
          "internalType": "address",
          "name": "owner",
          "type": "address"
        },
        {
          "indexed": true,
          "internalType": "address",
          "name": "approved",
          "type": "address"
        },
        {
          "indexed": true,
          "internalType": "uint256",
          "name": "tokenId",
          "type": "uint256"
        }
      ],
      "name": "Approval",
      "type": "event"
    },
    {
      "anonymous": false,
      "inputs": [
        {
          "indexed": true,
          "internalType": "address",
          "name": "owner",
          "type": "address"
        },
        {
          "indexed": true,
          "internalType": "address",
          "name": "operator",
          "type": "address"
        },
        {
          "indexed": false,
          "internalType": "bool",
          "name": "approved",
          "type": "bool"
        }
      ],
      "name": "ApprovalForAll",
      "type": "event"
    },
    {
      "anonymous": false,
      "inputs": [
        {
          "indexed": true,
          "internalType": "uint256",
          "name": "tokenId",
          "type": "uint256"
        }
      ],
      "name": "DogMinted",
      "type": "event"
    },
    {
      "anonymous": false,
      "inputs": [
        {
          "indexed": true,
          "internalType": "address",
          "name": "from",
          "type": "address"
        },
        {
          "indexed": true,
          "internalType": "address",
          "name": "to",
          "type": "address"
        },
        {
          "indexed": true,
          "internalType": "uint256",
          "name": "tokenId",
          "type": "uint256"
        }
      ],
      "name": "Transfer",
      "type": "event"
    },
    {
      "inputs": [],
      "name": "TOKEN_URI",
      "outputs": [
        {
          "internalType": "string",
          "name": "",
          "type": "string"
        }
      ],
      "stateMutability": "view",
      "type": "function"
    },
    {
      "inputs": [
        {
          "internalType": "address",
          "name": "to",
          "type": "address"
        },
        {
          "internalType": "uint256",
          "name": "tokenId",
          "type": "uint256"
        }
      ],
      "name": "approve",
      "outputs": [],
      "stateMutability": "nonpayable",
      "type": "function"
    },
    {
      "inputs": [
        {
          "internalType": "address",
          "name": "owner",
          "type": "address"
        }
      ],
      "name": "balanceOf",
      "outputs": [
        {
          "internalType": "uint256",
          "name": "",
          "type": "uint256"
        }
      ],
      "stateMutability": "view",
      "type": "function"
    },
    {
      "inputs": [
        {
          "internalType": "uint256",
          "name": "tokenId",
          "type": "uint256"
        }
      ],
      "name": "getApproved",
      "outputs": [
        {
          "internalType": "address",
          "name": "",
          "type": "address"
        }
      ],
      "stateMutability": "view",
      "type": "function"
    },
    {
      "inputs": [
        {
          "internalType": "address",
          "name": "owner",
          "type": "address"
        },
        {
          "internalType": "address",
          "name": "operator",
          "type": "address"
        }
      ],
      "name": "isApprovedForAll",
      "outputs": [
        {
          "internalType": "bool",
          "name": "",
          "type": "bool"
        }
      ],
      "stateMutability": "view",
      "type": "function"
    },
    {
      "inputs": [],
      "name": "mintNft",
      "outputs": [],
      "stateMutability": "nonpayable",
      "type": "function"
    },
    {
      "inputs": [],
      "name": "name",
      "outputs": [
        {
          "internalType": "string",
          "name": "",
          "type": "string"
        }
      ],
      "stateMutability": "view",
      "type": "function"
    },
    {
      "inputs": [
        {
          "internalType": "uint256",
          "name": "tokenId",
          "type": "uint256"
        }
      ],
      "name": "ownerOf",
      "outputs": [
        {
          "internalType": "address",
          "name": "",
          "type": "address"
        }
      ],
      "stateMutability": "view",
      "type": "function"
    },
    {
      "inputs": [
        {
          "internalType": "address",
          "name": "from",
          "type": "address"
        },
        {
          "internalType": "address",
          "name": "to",
          "type": "address"
        },
        {
          "internalType": "uint256",
          "name": "tokenId",
          "type": "uint256"
        }
      ],
      "name": "safeTransferFrom",
      "outputs": [],
      "stateMutability": "nonpayable",
      "type": "function"
    },
    {
      "inputs": [
        {
          "internalType": "address",
          "name": "from",
          "type": "address"
        },
        {
          "internalType": "address",
          "name": "to",
          "type": "address"
        },
        {
          "internalType": "uint256",
          "name": "tokenId",
          "type": "uint256"
        },
        {
          "internalType": "bytes",
          "name": "data",
          "type": "bytes"
        }
      ],
      "name": "safeTransferFrom",
      "outputs": [],
      "stateMutability": "nonpayable",
      "type": "function"
    },
    {
      "inputs": [
        {
          "internalType": "address",
          "name": "operator",
          "type": "address"
        },
        {
          "internalType": "bool",
          "name": "approved",
          "type": "bool"
        }
      ],
      "name": "setApprovalForAll",
      "outputs": [],
      "stateMutability": "nonpayable",
      "type": "function"
    },
    {
      "inputs": [
        {
          "internalType": "bytes4",
          "name": "interfaceId",
          "type": "bytes4"
        }
      ],
      "name": "supportsInterface",
      "outputs": [
        {
          "internalType": "bool",
          "name": "",
          "type": "bool"
        }
      ],
      "stateMutability": "view",
      "type": "function"
    },
    {
      "inputs": [],
      "name": "symbol",
      "outputs": [
        {
          "internalType": "string",
          "name": "",
          "type": "string"
        }
      ],
      "stateMutability": "view",
      "type": "function"
    },
    {
      "inputs": [
        {
          "internalType": "uint256",
          "name": "tokenId",
          "type": "uint256"
        }
      ],
      "name": "tokenURI",
      "outputs": [
        {
          "internalType": "string",
          "name": "",
          "type": "string"
        }
      ],
      "stateMutability": "view",
      "type": "function"
    },
    {
      "inputs": [
        {
          "internalType": "address",
          "name": "from",
          "type": "address"
        },
        {
          "internalType": "address",
          "name": "to",
          "type": "address"
        },
        {
          "internalType": "uint256",
          "name": "tokenId",
          "type": "uint256"
        }
      ],
      "name": "transferFrom",
      "outputs": [],
      "stateMutability": "nonpayable",
      "type": "function"
    }
  ],
  "bytecode": "0x60806040523480156200001157600080fd5b506040518060400160405280600381526020017f444f4700000000000000000000000000000000000000000000000000000000008152506040518060400160405280600681526020017f446f676769650000000000000000000000000000000000000000000000000000815250816000908051906020019062000096929190620000c0565b508060019080519060200190620000af929190620000c0565b5050506000600681905550620001d5565b828054620000ce906200019f565b90600052602060002090601f016020900481019282620000f257600085556200013e565b82601f106200010d57805160ff19168380011785556200013e565b828001600101855582156200013e579182015b828111156200013d57825182559160200191906001019062000120565b5b5090506200014d919062000151565b5090565b5b808211156200016c57600081600090555060010162000152565b5090565b7f4e487b7100000000000000000000000000000000000000000000000000000000600052602260045260246000fd5b60006002820490506001821680620001b857607f821691505b60208210811415620001cf57620001ce62000170565b5b50919050565b6123ad80620001e56000396000f3fe608060405234801561001057600080fd5b50600436106100f55760003560e01c806370a0823111610097578063b88d4fde11610066578063b88d4fde14610284578063c2229fea146102a0578063c87b56dd146102aa578063e985e9c5146102da576100f5565b806370a08231146101fc57806378ce90351461022c57806395d89b411461024a578063a22cb46514610268576100f5565b8063095ea7b3116100d3578063095ea7b31461017857806323b872dd1461019457806342842e0e146101b05780636352211e146101cc576100f5565b806301ffc9a7146100fa57806306fdde031461012a578063081812fc14610148575b600080fd5b610114600480360381019061010f9190611569565b61030a565b60405161012191906115b1565b60405180910390f35b6101326103ec565b60405161013f9190611665565b60405180910390f35b610162600480360381019061015d91906116bd565b61047e565b60405161016f919061172b565b60405180910390f35b610192600480360381019061018d9190611772565b6104c4565b005b6101ae60048036038101906101a991906117b2565b6105dc565b005b6101ca60048036038101906101c591906117b2565b61063c565b005b6101e660048036038101906101e191906116bd565b61065c565b6040516101f3919061172b565b60405180910390f35b61021660048036038101906102119190611805565b61070e565b6040516102239190611841565b60405180910390f35b6102346107c6565b6040516102419190611665565b60405180910390f35b6102526107e2565b60405161025f9190611665565b60405180910390f35b610282600480360381019061027d9190611888565b610874565b005b61029e600480360381019061029991906119fd565b61088a565b005b6102a86108ec565b005b6102c460048036038101906102bf91906116bd565b610941565b6040516102d19190611665565b60405180910390f35b6102f460048036038101906102ef9190611a80565b6109ab565b60405161030191906115b1565b60405180910390f35b60007f80ac58cd000000000000000000000000000000000000000000000000000000007bffffffffffffffffffffffffffffffffffffffffffffffffffffffff1916827bffffffffffffffffffffffffffffffffffffffffffffffffffffffff191614806103d557507f5b5e139f000000000000000000000000000000000000000000000000000000007bffffffffffffffffffffffffffffffffffffffffffffffffffffffff1916827bffffffffffffffffffffffffffffffffffffffffffffffffffffffff1916145b806103e557506103e482610a3f565b5b9050919050565b6060600080546103fb90611aef565b80601f016020809104026020016040519081016040528092919081815260200182805461042790611aef565b80156104745780601f1061044957610100808354040283529160200191610474565b820191906000526020600020905b81548152906001019060200180831161045757829003601f168201915b5050505050905090565b600061048982610aa9565b6004600083815260200190815260200160002060009054906101000a900473ffffffffffffffffffffffffffffffffffffffff169050919050565b60006104cf8261065c565b90508073ffffffffffffffffffffffffffffffffffffffff168373ffffffffffffffffffffffffffffffffffffffff161415610540576040517f08c379a000000000000000000000000000000000000000000000000000000000815260040161053790611b93565b60405180910390fd5b8073ffffffffffffffffffffffffffffffffffffffff1661055f610af4565b73ffffffffffffffffffffffffffffffffffffffff16148061058e575061058d81610588610af4565b6109ab565b5b6105cd576040517f08c379a00000000000000000000000000000000000000000000000000000000081526004016105c490611c25565b60405180910390fd5b6105d78383610afc565b505050565b6105ed6105e7610af4565b82610bb5565b61062c576040517f08c379a000000000000000000000000000000000000000000000000000000000815260040161062390611cb7565b60405180910390fd5b610637838383610c4a565b505050565b6106578383836040518060200160405280600081525061088a565b505050565b6000806002600084815260200190815260200160002060009054906101000a900473ffffffffffffffffffffffffffffffffffffffff169050600073ffffffffffffffffffffffffffffffffffffffff168173ffffffffffffffffffffffffffffffffffffffff161415610705576040517f08c379a00000000000000000000000000000000000000000000000000000000081526004016106fc90611d23565b60405180910390fd5b80915050919050565b60008073ffffffffffffffffffffffffffffffffffffffff168273ffffffffffffffffffffffffffffffffffffffff16141561077f576040517f08c379a000000000000000000000000000000000000000000000000000000000815260040161077690611db5565b60405180910390fd5b600360008373ffffffffffffffffffffffffffffffffffffffff1673ffffffffffffffffffffffffffffffffffffffff168152602001908152602001600020549050919050565b6040518060800160405280605781526020016123216057913981565b6060600180546107f190611aef565b80601f016020809104026020016040519081016040528092919081815260200182805461081d90611aef565b801561086a5780601f1061083f5761010080835404028352916020019161086a565b820191906000526020600020905b81548152906001019060200180831161084d57829003601f168201915b5050505050905090565b61088661087f610af4565b8383610eb1565b5050565b61089b610895610af4565b83610bb5565b6108da576040517f08c379a00000000000000000000000000000000000000000000000000000000081526004016108d190611cb7565b60405180910390fd5b6108e68484848461101e565b50505050565b6108f83360065461107a565b6006547fef1da42f89c42f48befa143007e6f5efd84a2d1cc3dc97c5edd2d3373220f66d60405160405180910390a26006600081548092919061093a90611e04565b9190505550565b606061094c82611098565b61098b576040517f08c379a000000000000000000000000000000000000000000000000000000000815260040161098290611e99565b60405180910390fd5b604051806080016040528060578152602001612321605791399050919050565b6000600560008473ffffffffffffffffffffffffffffffffffffffff1673ffffffffffffffffffffffffffffffffffffffff16815260200190815260200160002060008373ffffffffffffffffffffffffffffffffffffffff1673ffffffffffffffffffffffffffffffffffffffff16815260200190815260200160002060009054906101000a900460ff16905092915050565b60007f01ffc9a7000000000000000000000000000000000000000000000000000000007bffffffffffffffffffffffffffffffffffffffffffffffffffffffff1916827bffffffffffffffffffffffffffffffffffffffffffffffffffffffff1916149050919050565b610ab281611098565b610af1576040517f08c379a0000000000000000000000000000000000000000000000000000000008152600401610ae890611d23565b60405180910390fd5b50565b600033905090565b816004600083815260200190815260200160002060006101000a81548173ffffffffffffffffffffffffffffffffffffffff021916908373ffffffffffffffffffffffffffffffffffffffff160217905550808273ffffffffffffffffffffffffffffffffffffffff16610b6f8361065c565b73ffffffffffffffffffffffffffffffffffffffff167f8c5be1e5ebec7d5bd14f71427d1e84f3dd0314c0f7b2291e5b200ac8c7c3b92560405160405180910390a45050565b600080610bc18361065c565b90508073ffffffffffffffffffffffffffffffffffffffff168473ffffffffffffffffffffffffffffffffffffffff161480610c035750610c0281856109ab565b5b80610c4157508373ffffffffffffffffffffffffffffffffffffffff16610c298461047e565b73ffffffffffffffffffffffffffffffffffffffff16145b91505092915050565b8273ffffffffffffffffffffffffffffffffffffffff16610c6a8261065c565b73ffffffffffffffffffffffffffffffffffffffff1614610cc0576040517f08c379a0000000000000000000000000000000000000000000000000000000008152600401610cb790611f2b565b60405180910390fd5b600073ffffffffffffffffffffffffffffffffffffffff168273ffffffffffffffffffffffffffffffffffffffff161415610d30576040517f08c379a0000000000000000000000000000000000000000000000000000000008152600401610d2790611fbd565b60405180910390fd5b610d3b838383611104565b610d46600082610afc565b6001600360008573ffffffffffffffffffffffffffffffffffffffff1673ffffffffffffffffffffffffffffffffffffffff1681526020019081526020016000206000828254610d969190611fdd565b925050819055506001600360008473ffffffffffffffffffffffffffffffffffffffff1673ffffffffffffffffffffffffffffffffffffffff1681526020019081526020016000206000828254610ded9190612011565b92505081905550816002600083815260200190815260200160002060006101000a81548173ffffffffffffffffffffffffffffffffffffffff021916908373ffffffffffffffffffffffffffffffffffffffff160217905550808273ffffffffffffffffffffffffffffffffffffffff168473ffffffffffffffffffffffffffffffffffffffff167fddf252ad1be2c89b69c2b068fc378daa952ba7f163c4a11628f55a4df523b3ef60405160405180910390a4610eac838383611109565b505050565b8173ffffffffffffffffffffffffffffffffffffffff168373ffffffffffffffffffffffffffffffffffffffff161415610f20576040517f08c379a0000000000000000000000000000000000000000000000000000000008152600401610f17906120b3565b60405180910390fd5b80600560008573ffffffffffffffffffffffffffffffffffffffff1673ffffffffffffffffffffffffffffffffffffffff16815260200190815260200160002060008473ffffffffffffffffffffffffffffffffffffffff1673ffffffffffffffffffffffffffffffffffffffff16815260200190815260200160002060006101000a81548160ff0219169083151502179055508173ffffffffffffffffffffffffffffffffffffffff168373ffffffffffffffffffffffffffffffffffffffff167f17307eab39ab6107e8899845ad3d59bd9653f200f220920489ca2b5937696c318360405161101191906115b1565b60405180910390a3505050565b611029848484610c4a565b6110358484848461110e565b611074576040517f08c379a000000000000000000000000000000000000000000000000000000000815260040161106b90612145565b60405180910390fd5b50505050565b6110948282604051806020016040528060008152506112a5565b5050565b60008073ffffffffffffffffffffffffffffffffffffffff166002600084815260200190815260200160002060009054906101000a900473ffffffffffffffffffffffffffffffffffffffff1673ffffffffffffffffffffffffffffffffffffffff1614159050919050565b505050565b505050565b600061112f8473ffffffffffffffffffffffffffffffffffffffff16611300565b15611298578373ffffffffffffffffffffffffffffffffffffffff1663150b7a02611158610af4565b8786866040518563ffffffff1660e01b815260040161117a94939291906121ba565b602060405180830381600087803b15801561119457600080fd5b505af19250505080156111c557506040513d601f19601f820116820180604052508101906111c2919061221b565b60015b611248573d80600081146111f5576040519150601f19603f3d011682016040523d82523d6000602084013e6111fa565b606091505b50600081511415611240576040517f08c379a000000000000000000000000000000000000000000000000000000000815260040161123790612145565b60405180910390fd5b805181602001fd5b63150b7a0260e01b7bffffffffffffffffffffffffffffffffffffffffffffffffffffffff1916817bffffffffffffffffffffffffffffffffffffffffffffffffffffffff19161491505061129d565b600190505b949350505050565b6112af8383611323565b6112bc600084848461110e565b6112fb576040517f08c379a00000000000000000000000000000000000000000000000000000000081526004016112f290612145565b60405180910390fd5b505050565b6000808273ffffffffffffffffffffffffffffffffffffffff163b119050919050565b600073ffffffffffffffffffffffffffffffffffffffff168273ffffffffffffffffffffffffffffffffffffffff161415611393576040517f08c379a000000000000000000000000000000000000000000000000000000000815260040161138a90612294565b60405180910390fd5b61139c81611098565b156113dc576040517f08c379a00000000000000000000000000000000000000000000000000000000081526004016113d390612300565b60405180910390fd5b6113e860008383611104565b6001600360008473ffffffffffffffffffffffffffffffffffffffff1673ffffffffffffffffffffffffffffffffffffffff16815260200190815260200160002060008282546114389190612011565b92505081905550816002600083815260200190815260200160002060006101000a81548173ffffffffffffffffffffffffffffffffffffffff021916908373ffffffffffffffffffffffffffffffffffffffff160217905550808273ffffffffffffffffffffffffffffffffffffffff16600073ffffffffffffffffffffffffffffffffffffffff167fddf252ad1be2c89b69c2b068fc378daa952ba7f163c4a11628f55a4df523b3ef60405160405180910390a46114f960008383611109565b5050565b6000604051905090565b600080fd5b600080fd5b60007fffffffff0000000000000000000000000000000000000000000000000000000082169050919050565b61154681611511565b811461155157600080fd5b50565b6000813590506115638161153d565b92915050565b60006020828403121561157f5761157e611507565b5b600061158d84828501611554565b91505092915050565b60008115159050919050565b6115ab81611596565b82525050565b60006020820190506115c660008301846115a2565b92915050565b600081519050919050565b600082825260208201905092915050565b60005b838110156116065780820151818401526020810190506115eb565b83811115611615576000848401525b50505050565b6000601f19601f8301169050919050565b6000611637826115cc565b61164181856115d7565b93506116518185602086016115e8565b61165a8161161b565b840191505092915050565b6000602082019050818103600083015261167f818461162c565b905092915050565b6000819050919050565b61169a81611687565b81146116a557600080fd5b50565b6000813590506116b781611691565b92915050565b6000602082840312156116d3576116d2611507565b5b60006116e1848285016116a8565b91505092915050565b600073ffffffffffffffffffffffffffffffffffffffff82169050919050565b6000611715826116ea565b9050919050565b6117258161170a565b82525050565b6000602082019050611740600083018461171c565b92915050565b61174f8161170a565b811461175a57600080fd5b50565b60008135905061176c81611746565b92915050565b6000806040838503121561178957611788611507565b5b60006117978582860161175d565b92505060206117a8858286016116a8565b9150509250929050565b6000806000606084860312156117cb576117ca611507565b5b60006117d98682870161175d565b93505060206117ea8682870161175d565b92505060406117fb868287016116a8565b9150509250925092565b60006020828403121561181b5761181a611507565b5b60006118298482850161175d565b91505092915050565b61183b81611687565b82525050565b60006020820190506118566000830184611832565b92915050565b61186581611596565b811461187057600080fd5b50565b6000813590506118828161185c565b92915050565b6000806040838503121561189f5761189e611507565b5b60006118ad8582860161175d565b92505060206118be85828601611873565b9150509250929050565b600080fd5b600080fd5b7f4e487b7100000000000000000000000000000000000000000000000000000000600052604160045260246000fd5b61190a8261161b565b810181811067ffffffffffffffff82111715611929576119286118d2565b5b80604052505050565b600061193c6114fd565b90506119488282611901565b919050565b600067ffffffffffffffff821115611968576119676118d2565b5b6119718261161b565b9050602081019050919050565b82818337600083830152505050565b60006119a061199b8461194d565b611932565b9050828152602081018484840111156119bc576119bb6118cd565b5b6119c784828561197e565b509392505050565b600082601f8301126119e4576119e36118c8565b5b81356119f484826020860161198d565b91505092915050565b60008060008060808587031215611a1757611a16611507565b5b6000611a258782880161175d565b9450506020611a368782880161175d565b9350506040611a47878288016116a8565b925050606085013567ffffffffffffffff811115611a6857611a6761150c565b5b611a74878288016119cf565b91505092959194509250565b60008060408385031215611a9757611a96611507565b5b6000611aa58582860161175d565b9250506020611ab68582860161175d565b9150509250929050565b7f4e487b7100000000000000000000000000000000000000000000000000000000600052602260045260246000fd5b60006002820490506001821680611b0757607f821691505b60208210811415611b1b57611b1a611ac0565b5b50919050565b7f4552433732313a20617070726f76616c20746f2063757272656e74206f776e6560008201527f7200000000000000000000000000000000000000000000000000000000000000602082015250565b6000611b7d6021836115d7565b9150611b8882611b21565b604082019050919050565b60006020820190508181036000830152611bac81611b70565b9050919050565b7f4552433732313a20617070726f76652063616c6c6572206973206e6f7420746f60008201527f6b656e206f776e6572206e6f7220617070726f76656420666f7220616c6c0000602082015250565b6000611c0f603e836115d7565b9150611c1a82611bb3565b604082019050919050565b60006020820190508181036000830152611c3e81611c02565b9050919050565b7f4552433732313a2063616c6c6572206973206e6f7420746f6b656e206f776e6560008201527f72206e6f7220617070726f766564000000000000000000000000000000000000602082015250565b6000611ca1602e836115d7565b9150611cac82611c45565b604082019050919050565b60006020820190508181036000830152611cd081611c94565b9050919050565b7f4552433732313a20696e76616c696420746f6b656e2049440000000000000000600082015250565b6000611d0d6018836115d7565b9150611d1882611cd7565b602082019050919050565b60006020820190508181036000830152611d3c81611d00565b9050919050565b7f4552433732313a2061646472657373207a65726f206973206e6f74206120766160008201527f6c6964206f776e65720000000000000000000000000000000000000000000000602082015250565b6000611d9f6029836115d7565b9150611daa82611d43565b604082019050919050565b60006020820190508181036000830152611dce81611d92565b9050919050565b7f4e487b7100000000000000000000000000000000000000000000000000000000600052601160045260246000fd5b6000611e0f82611687565b91507fffffffffffffffffffffffffffffffffffffffffffffffffffffffffffffffff821415611e4257611e41611dd5565b5b600182019050919050565b7f55524920717565727920646f6573206e6f742065786973740000000000000000600082015250565b6000611e836018836115d7565b9150611e8e82611e4d565b602082019050919050565b60006020820190508181036000830152611eb281611e76565b9050919050565b7f4552433732313a207472616e736665722066726f6d20696e636f72726563742060008201527f6f776e6572000000000000000000000000000000000000000000000000000000602082015250565b6000611f156025836115d7565b9150611f2082611eb9565b604082019050919050565b60006020820190508181036000830152611f4481611f08565b9050919050565b7f4552433732313a207472616e7366657220746f20746865207a65726f2061646460008201527f7265737300000000000000000000000000000000000000000000000000000000602082015250565b6000611fa76024836115d7565b9150611fb282611f4b565b604082019050919050565b60006020820190508181036000830152611fd681611f9a565b9050919050565b6000611fe882611687565b9150611ff383611687565b92508282101561200657612005611dd5565b5b828203905092915050565b600061201c82611687565b915061202783611687565b9250827fffffffffffffffffffffffffffffffffffffffffffffffffffffffffffffffff0382111561205c5761205b611dd5565b5b828201905092915050565b7f4552433732313a20617070726f766520746f2063616c6c657200000000000000600082015250565b600061209d6019836115d7565b91506120a882612067565b602082019050919050565b600060208201905081810360008301526120cc81612090565b9050919050565b7f4552433732313a207472616e7366657220746f206e6f6e20455243373231526560008201527f63656976657220696d706c656d656e7465720000000000000000000000000000602082015250565b600061212f6032836115d7565b915061213a826120d3565b604082019050919050565b6000602082019050818103600083015261215e81612122565b9050919050565b600081519050919050565b600082825260208201905092915050565b600061218c82612165565b6121968185612170565b93506121a68185602086016115e8565b6121af8161161b565b840191505092915050565b60006080820190506121cf600083018761171c565b6121dc602083018661171c565b6121e96040830185611832565b81810360608301526121fb8184612181565b905095945050505050565b6000815190506122158161153d565b92915050565b60006020828403121561223157612230611507565b5b600061223f84828501612206565b91505092915050565b7f4552433732313a206d696e7420746f20746865207a65726f2061646472657373600082015250565b600061227e6020836115d7565b915061228982612248565b602082019050919050565b600060208201905081810360008301526122ad81612271565b9050919050565b7f4552433732313a20746f6b656e20616c7265616479206d696e74656400000000600082015250565b60006122ea601c836115d7565b91506122f5826122b4565b602082019050919050565b60006020820190508181036000830152612319816122dd565b905091905056fe697066733a2f2f62616679626569673337696f6972373673376d67356f6f6265746e636f6a636d3363336878617379643472766964346a71687934676b61686567342f3f66696c656e616d653d302d5055472e6a736f6ea26469706673582212202817efaec0fec737594faf15270b17357c4307e3a17147e5e3a202a2eded288864736f6c63430008090033",
  "linkReferences": {},
  "deployedLinkReferences": {}
}